{
  "_format": "hh-sol-artifact-1",
  "contractName": "MaxTenPercentOwnershipModule",
  "sourceName": "contracts/erc3643/compliance/modular/modules/Max10PercentOwnershipModule.sol",
  "abi": [
    {
      "inputs": [
        {
          "internalType": "address",
          "name": "_compliance",
          "type": "address"
        },
        {
          "internalType": "address[]",
          "name": "_id",
          "type": "address[]"
        },
        {
          "internalType": "uint256[]",
          "name": "_balance",
          "type": "uint256[]"
        }
      ],
      "name": "InvalidPresetValues",
      "type": "error"
    },
    {
      "inputs": [],
      "name": "MathOverflowedMulDiv",
      "type": "error"
    },
    {
      "inputs": [
        {
          "internalType": "address",
          "name": "_compliance",
          "type": "address"
        },
        {
          "internalType": "uint256",
          "name": "_value",
          "type": "uint256"
        }
      ],
      "name": "MaxOwnershipExceeded",
      "type": "error"
    },
    {
      "inputs": [
        {
          "internalType": "address",
          "name": "_compliance",
          "type": "address"
        }
      ],
      "name": "OnlyComplianceOwnerCanCall",
      "type": "error"
    },
    {
      "inputs": [
        {
          "internalType": "address",
          "name": "_compliance",
          "type": "address"
        }
      ],
      "name": "TokenAlreadyBound",
      "type": "error"
    },
    {
      "anonymous": false,
      "inputs": [
        {
          "indexed": true,
          "internalType": "address",
          "name": "_compliance",
          "type": "address"
        }
      ],
      "name": "ComplianceBound",
      "type": "event"
    },
    {
      "anonymous": false,
      "inputs": [
        {
          "indexed": true,
          "internalType": "address",
          "name": "_compliance",
          "type": "address"
        }
      ],
      "name": "ComplianceUnbound",
      "type": "event"
    },
    {
      "anonymous": false,
      "inputs": [
        {
          "indexed": true,
          "internalType": "address",
          "name": "_compliance",
          "type": "address"
        },
        {
          "indexed": true,
          "internalType": "address",
          "name": "_id",
          "type": "address"
        },
        {
          "indexed": false,
          "internalType": "uint256",
          "name": "_balance",
          "type": "uint256"
        }
      ],
      "name": "IDBalancePreSet",
      "type": "event"
    },
    {
      "anonymous": false,
      "inputs": [
        {
          "indexed": true,
          "internalType": "address",
          "name": "_compliance",
          "type": "address"
        },
        {
          "indexed": true,
          "internalType": "uint256",
          "name": "_maxPercetage",
          "type": "uint256"
        }
      ],
      "name": "MaxPercentageSet",
      "type": "event"
    },
    {
      "inputs": [
        {
          "internalType": "address",
          "name": "_compliance",
          "type": "address"
        },
        {
          "internalType": "address[]",
          "name": "_id",
          "type": "address[]"
        },
        {
          "internalType": "uint256[]",
          "name": "_balance",
          "type": "uint256[]"
        }
      ],
      "name": "batchPreSetModuleState",
      "outputs": [],
      "stateMutability": "nonpayable",
      "type": "function"
    },
    {
      "inputs": [
        {
          "internalType": "address",
          "name": "_compliance",
          "type": "address"
        }
      ],
      "name": "bindCompliance",
      "outputs": [],
      "stateMutability": "nonpayable",
      "type": "function"
    },
    {
      "inputs": [
        {
          "internalType": "address",
          "name": "_compliance",
          "type": "address"
        }
      ],
      "name": "canComplianceBind",
      "outputs": [
        {
          "internalType": "bool",
          "name": "",
          "type": "bool"
        }
      ],
      "stateMutability": "view",
      "type": "function"
    },
    {
      "inputs": [
        {
          "internalType": "address",
          "name": "_compliance",
          "type": "address"
        },
        {
          "internalType": "address",
          "name": "_identity",
          "type": "address"
        }
      ],
      "name": "getIDBalance",
      "outputs": [
        {
          "internalType": "uint256",
          "name": "",
          "type": "uint256"
        }
      ],
      "stateMutability": "view",
      "type": "function"
    },
    {
      "inputs": [
        {
          "internalType": "address",
          "name": "_compliance",
          "type": "address"
        }
      ],
      "name": "isComplianceBound",
      "outputs": [
        {
          "internalType": "bool",
          "name": "",
          "type": "bool"
        }
      ],
      "stateMutability": "view",
      "type": "function"
    },
    {
      "inputs": [],
      "name": "isPlugAndPlay",
      "outputs": [
        {
          "internalType": "bool",
          "name": "",
          "type": "bool"
        }
      ],
      "stateMutability": "pure",
      "type": "function"
    },
    {
      "inputs": [
        {
          "internalType": "address",
          "name": "_from",
          "type": "address"
        },
        {
          "internalType": "uint256",
          "name": "_value",
          "type": "uint256"
        }
      ],
      "name": "moduleBurnAction",
      "outputs": [],
      "stateMutability": "nonpayable",
      "type": "function"
    },
    {
      "inputs": [
        {
          "internalType": "address",
          "name": "",
          "type": "address"
        },
        {
          "internalType": "address",
          "name": "_to",
          "type": "address"
        },
        {
          "internalType": "uint256",
          "name": "_value",
          "type": "uint256"
        },
        {
          "internalType": "address",
          "name": "_compliance",
          "type": "address"
        }
      ],
      "name": "moduleCheck",
      "outputs": [
        {
          "internalType": "bool",
          "name": "",
          "type": "bool"
        }
      ],
      "stateMutability": "view",
      "type": "function"
    },
    {
      "inputs": [
        {
          "internalType": "address",
          "name": "_to",
          "type": "address"
        },
        {
          "internalType": "uint256",
          "name": "_value",
          "type": "uint256"
        }
      ],
      "name": "moduleMintAction",
      "outputs": [],
      "stateMutability": "nonpayable",
      "type": "function"
    },
    {
      "inputs": [
        {
          "internalType": "address",
          "name": "_from",
          "type": "address"
        },
        {
          "internalType": "address",
          "name": "_to",
          "type": "address"
        },
        {
          "internalType": "uint256",
          "name": "_value",
          "type": "uint256"
        }
      ],
      "name": "moduleTransferAction",
      "outputs": [],
      "stateMutability": "nonpayable",
      "type": "function"
    },
    {
      "inputs": [],
      "name": "name",
      "outputs": [
        {
          "internalType": "string",
          "name": "_name",
          "type": "string"
        }
      ],
      "stateMutability": "pure",
      "type": "function"
    },
    {
      "inputs": [
        {
          "internalType": "address",
          "name": "_compliance",
          "type": "address"
        },
        {
          "internalType": "address",
          "name": "_id",
          "type": "address"
        },
        {
          "internalType": "uint256",
          "name": "_balance",
          "type": "uint256"
        }
      ],
      "name": "preSetModuleState",
      "outputs": [],
      "stateMutability": "nonpayable",
      "type": "function"
    },
    {
      "inputs": [
        {
          "internalType": "address",
          "name": "_compliance",
          "type": "address"
        }
      ],
      "name": "presetCompleted",
      "outputs": [],
      "stateMutability": "nonpayable",
      "type": "function"
    },
    {
      "inputs": [
        {
          "internalType": "address",
          "name": "_compliance",
          "type": "address"
        }
      ],
      "name": "unbindCompliance",
      "outputs": [],
      "stateMutability": "nonpayable",
      "type": "function"
    }
  ],
  "bytecode": "0x6080604052600a60025534801561001557600080fd5b506114e1806100256000396000f3fe608060405234801561001057600080fd5b50600436106100ea5760003560e01c80638f27c0eb1161008c578063dd50b74c11610066578063dd50b74c14610217578063e6f5e8071461022a578063f104a8c914610231578063f7c4722c1461024457600080fd5b80638f27c0eb146101d0578063bcc21053146101e3578063cc203f75146101f657600080fd5b80632cb7e1ec116100c85780632cb7e1ec1461016b578063372491a21461017e5780634a932544146101915780634cf4d295146101a457600080fd5b8063013b7ce4146100ef5780630694a5fb1461011757806306fdde031461012c575b600080fd5b6101026100fd3660046110b0565b610257565b60405190151581526020015b60405180910390f35b61012a610125366004611103565b6102c5565b005b604080518082018252601c81527f4d617854656e50657263656e744f776e6572736869704d6f64756c65000000006020820152905161010e9190611120565b61012a61017936600461116f565b6103c4565b61012a61018c3660046111b0565b6104e2565b61012a61019f366004611103565b61055f565b6101026101b2366004611103565b6001600160a01b031660009081526020819052604090205460ff1690565b61012a6101de366004611228565b610692565b6101026101f1366004611103565b610882565b6102096102043660046112ab565b610993565b60405190815260200161010e565b61012a610225366004611103565b6109c0565b6000610102565b61012a61023f3660046111b0565b610a85565b61012a61025236600461116f565b610b5b565b6000806102648386610c95565b6002546001600160a01b03808616600090815260036020908152604080832093861683529290522054919250906102a79085906102a29088906112fa565b610e1b565b11156102b75760009150506102bd565b60019150505b949350505050565b3360009081526020819052604090205460ff166102fd5760405162461bcd60e51b81526004016102f49061130d565b60405180910390fd5b6001600160a01b0381166103535760405162461bcd60e51b815260206004820152601f60248201527f696e76616c696420617267756d656e74202d207a65726f20616464726573730060448201526064016102f4565b336001600160a01b0382161461037b5760405162461bcd60e51b81526004016102f490611344565b6001600160a01b038116600081815260208190526040808220805460ff19169055517f408b49d9be1c914c52a0227e18a077e5a892dddf32a26cfa94a5d9708fad77189190a250565b3360009081526020819052604090205460ff166103f35760405162461bcd60e51b81526004016102f49061130d565b60006103ff3385610c95565b9050600061040d3385610c95565b3360009081526003602090815260408083206001600160a01b03851684529091528120805492935085929091906104459084906112fa565b90915550503360009081526003602090815260408083206001600160a01b03861684529091528120805485929061047d908490611385565b90915550506002543360008181526003602090815260408083206001600160a01b03871684529091529020546104b39190610e1b565b11156104db5760405163bc37982360e01b8152336004820152602481018490526044016102f4565b5050505050565b3360009081526020819052604090205460ff166105115760405162461bcd60e51b81526004016102f49061130d565b600061051d3384610c95565b3360009081526003602090815260408083206001600160a01b0385168452909152812080549293508492909190610555908490611385565b9091555050505050565b6001600160a01b0381166105b55760405162461bcd60e51b815260206004820152601f60248201527f696e76616c696420617267756d656e74202d207a65726f20616464726573730060448201526064016102f4565b6001600160a01b03811660009081526020819052604090205460ff161561061e5760405162461bcd60e51b815260206004820152601860248201527f636f6d706c69616e636520616c726561647920626f756e64000000000000000060448201526064016102f4565b336001600160a01b038216146106465760405162461bcd60e51b81526004016102f490611344565b6001600160a01b038116600081815260208190526040808220805460ff19166001179055517f1f7b76c58fb697eb53c6c7c1becb96911516a136e24d7ced386b2355358b75a39190a250565b828015806106a05750808214155b156106c857858585858560405163355c2bfd60e11b81526004016102f4959493929190611398565b336001600160a01b0316866001600160a01b0316638da5cb5b6040518163ffffffff1660e01b8152600401602060405180830381865afa158015610710573d6000803e3d6000fd5b505050506040513d601f19601f820116820180604052508101906107349190611427565b6001600160a01b0316146107665760405163e8649dab60e01b81526001600160a01b03871660048201526024016102f4565b60405163a446d49f60e01b81523060048201526001600160a01b0387169063a446d49f90602401602060405180830381865afa1580156107aa573d6000803e3d6000fd5b505050506040513d601f19601f820116820180604052508101906107ce9190611444565b156107f75760405163346a0c0160e21b81526001600160a01b03871660048201526024016102f4565b60005b818110156108535761084b8787878481811061081857610818611466565b905060200201602081019061082d9190611103565b86868581811061083f5761083f611466565b90506020020135610f73565b6001016107fa565b5050506001600160a01b039093166000908152600160208190526040909120805460ff19169091179055505050565b6001600160a01b03811660009081526001602052604081205460ff16156108ab57506001919050565b6000826001600160a01b0316636a3edf286040518163ffffffff1660e01b8152600401602060405180830381865afa1580156108eb573d6000803e3d6000fd5b505050506040513d601f19601f8201168201806040525081019061090f9190611427565b90506000816001600160a01b03166318160ddd6040518163ffffffff1660e01b8152600401602060405180830381865afa158015610951573d6000803e3d6000fd5b505050506040513d601f19601f82011682018060405250810190610975919061147c565b905080600003610989575060019392505050565b5060009392505050565b6001600160a01b038083166000908152600360209081526040808320938516835292905220545b92915050565b336001600160a01b0316816001600160a01b0316638da5cb5b6040518163ffffffff1660e01b8152600401602060405180830381865afa158015610a08573d6000803e3d6000fd5b505050506040513d601f19601f82011682018060405250810190610a2c9190611427565b6001600160a01b031614610a5e5760405163e8649dab60e01b81526001600160a01b03821660048201526024016102f4565b6001600160a01b03166000908152600160208190526040909120805460ff19169091179055565b3360009081526020819052604090205460ff16610ab45760405162461bcd60e51b81526004016102f49061130d565b6000610ac03384610c95565b3360009081526003602090815260408083206001600160a01b0385168452909152812080549293508492909190610af89084906112fa565b90915550506002543360008181526003602090815260408083206001600160a01b0387168452909152902054610b2e9190610e1b565b1115610b565760405163bc37982360e01b8152336004820152602481018390526044016102f4565b505050565b336001600160a01b0316836001600160a01b0316638da5cb5b6040518163ffffffff1660e01b8152600401602060405180830381865afa158015610ba3573d6000803e3d6000fd5b505050506040513d601f19601f82011682018060405250810190610bc79190611427565b6001600160a01b031614610bf95760405163e8649dab60e01b81526001600160a01b03841660048201526024016102f4565b60405163a446d49f60e01b81523060048201526001600160a01b0384169063a446d49f90602401602060405180830381865afa158015610c3d573d6000803e3d6000fd5b505050506040513d601f19601f82011682018060405250810190610c619190611444565b15610c8a5760405163346a0c0160e21b81526001600160a01b03841660048201526024016102f4565b610b56838383610f73565b600080836001600160a01b0316636a3edf286040518163ffffffff1660e01b8152600401602060405180830381865afa158015610cd6573d6000803e3d6000fd5b505050506040513d601f19601f82011682018060405250810190610cfa9190611427565b6001600160a01b031663134e18f46040518163ffffffff1660e01b8152600401602060405180830381865afa158015610d37573d6000803e3d6000fd5b505050506040513d601f19601f82011682018060405250810190610d5b9190611427565b604051633c3ad79560e21b81526001600160a01b038581166004830152919091169063f0eb5e5490602401602060405180830381865afa158015610da3573d6000803e3d6000fd5b505050506040513d601f19601f82011682018060405250810190610dc79190611427565b90506001600160a01b038116610e145760405162461bcd60e51b81526020600482015260126024820152711a59195b9d1a5d1e481b9bdd08199bdd5b9960721b60448201526064016102f4565b9392505050565b600080836001600160a01b0316636a3edf286040518163ffffffff1660e01b8152600401602060405180830381865afa158015610e5c573d6000803e3d6000fd5b505050506040513d601f19601f82011682018060405250810190610e809190611427565b90506000816001600160a01b03166318160ddd6040518163ffffffff1660e01b8152600401602060405180830381865afa158015610ec2573d6000803e3d6000fd5b505050506040513d601f19601f82011682018060405250810190610ee6919061147c565b905060008111610f5e5760405162461bcd60e51b815260206004820152603860248201527f4d617854656e50657263656e744f776e6572736869704d6f64756c653a20746f60448201527f6b656e20746f74616c20737570706c79206973207a65726f000000000000000060648201526084016102f4565b610f6a84606483610fd4565b95945050505050565b6001600160a01b0383811660008181526003602090815260408083209487168084529482529182902085905590518481527f0a777417e1c0a4b24c5f556b0c3dd522c37b99b2c3ca4bf9fea2fa1293c660c9910160405180910390a3505050565b600083830281600019858709828110838203039150508060000361100b5783828161100157611001611495565b0492505050610e14565b80841161102b5760405163227bc15360e01b815260040160405180910390fd5b6000848688096000868103871696879004966002600389028118808a02820302808a02820302808a02820302808a02820302808a02820302808a02909103029181900381900460010186841190950394909402919094039290920491909117919091029150509392505050565b6001600160a01b03811681146110ad57600080fd5b50565b600080600080608085870312156110c657600080fd5b84356110d181611098565b935060208501356110e181611098565b92506040850135915060608501356110f881611098565b939692955090935050565b60006020828403121561111557600080fd5b8135610e1481611098565b60006020808352835180602085015260005b8181101561114e57858101830151858201604001528201611132565b506000604082860101526040601f19601f8301168501019250505092915050565b60008060006060848603121561118457600080fd5b833561118f81611098565b9250602084013561119f81611098565b929592945050506040919091013590565b600080604083850312156111c357600080fd5b82356111ce81611098565b946020939093013593505050565b60008083601f8401126111ee57600080fd5b50813567ffffffffffffffff81111561120657600080fd5b6020830191508360208260051b850101111561122157600080fd5b9250929050565b60008060008060006060868803121561124057600080fd5b853561124b81611098565b9450602086013567ffffffffffffffff8082111561126857600080fd5b61127489838a016111dc565b9096509450604088013591508082111561128d57600080fd5b5061129a888289016111dc565b969995985093965092949392505050565b600080604083850312156112be57600080fd5b82356112c981611098565b915060208301356112d981611098565b809150509250929050565b634e487b7160e01b600052601160045260246000fd5b808201808211156109ba576109ba6112e4565b6020808252601e908201527f6f6e6c7920626f756e6420636f6d706c69616e63652063616e2063616c6c0000604082015260600190565b60208082526021908201527f6f6e6c7920636f6d706c69616e636520636f6e74726163742063616e2063616c6040820152601b60fa1b606082015260800190565b818103818111156109ba576109ba6112e4565b6001600160a01b03868116825260606020808401829052908301869052600091879160808501845b898110156113e75784356113d381611098565b8416825293820193908201906001016113c0565b5085810360408701528681526001600160fb1b0387111561140757600080fd5b8660051b9350838860208301379092016020019998505050505050505050565b60006020828403121561143957600080fd5b8151610e1481611098565b60006020828403121561145657600080fd5b81518015158114610e1457600080fd5b634e487b7160e01b600052603260045260246000fd5b60006020828403121561148e57600080fd5b5051919050565b634e487b7160e01b600052601260045260246000fdfea264697066735822122003719b1caaa91e241c549ad6435f9d260e2c013b73f6ac8f144392b5d41ee8e564736f6c63430008180033",
  "linkReferences": {},
  "deployedLinkReferences": {}
}