{
  "_format": "hh-sol-artifact-1",
  "contractName": "OnlyUsaModule",
  "sourceName": "contracts/erc3643/compliance/modular/modules/OnlyUSAModule.sol",
  "abi": [
    {
      "inputs": [
        {
          "internalType": "address",
          "name": "_compliance",
          "type": "address"
        },
        {
          "internalType": "uint16",
          "name": "_country",
          "type": "uint16"
        }
      ],
      "name": "CountryNotAllowed",
      "type": "error"
    },
    {
      "anonymous": false,
      "inputs": [
        {
          "indexed": true,
          "internalType": "address",
          "name": "_compliance",
          "type": "address"
        }
      ],
      "name": "ComplianceBound",
      "type": "event"
    },
    {
      "anonymous": false,
      "inputs": [
        {
          "indexed": true,
          "internalType": "address",
          "name": "_compliance",
          "type": "address"
        }
      ],
      "name": "ComplianceUnbound",
      "type": "event"
    },
    {
      "inputs": [
        {
          "internalType": "address",
          "name": "_compliance",
          "type": "address"
        }
      ],
      "name": "bindCompliance",
      "outputs": [],
      "stateMutability": "nonpayable",
      "type": "function"
    },
    {
      "inputs": [
        {
          "internalType": "address",
          "name": "",
          "type": "address"
        }
      ],
      "name": "canComplianceBind",
      "outputs": [
        {
          "internalType": "bool",
          "name": "",
          "type": "bool"
        }
      ],
      "stateMutability": "view",
      "type": "function"
    },
    {
      "inputs": [
        {
          "internalType": "address",
          "name": "_compliance",
          "type": "address"
        }
      ],
      "name": "isComplianceBound",
      "outputs": [
        {
          "internalType": "bool",
          "name": "",
          "type": "bool"
        }
      ],
      "stateMutability": "view",
      "type": "function"
    },
    {
      "inputs": [
        {
          "internalType": "uint16",
          "name": "_country",
          "type": "uint16"
        }
      ],
      "name": "isCountryAllowed",
      "outputs": [
        {
          "internalType": "bool",
          "name": "",
          "type": "bool"
        }
      ],
      "stateMutability": "pure",
      "type": "function"
    },
    {
      "inputs": [],
      "name": "isPlugAndPlay",
      "outputs": [
        {
          "internalType": "bool",
          "name": "",
          "type": "bool"
        }
      ],
      "stateMutability": "pure",
      "type": "function"
    },
    {
      "inputs": [
        {
          "internalType": "address",
          "name": "_from",
          "type": "address"
        },
        {
          "internalType": "uint256",
          "name": "_value",
          "type": "uint256"
        }
      ],
      "name": "moduleBurnAction",
      "outputs": [],
      "stateMutability": "nonpayable",
      "type": "function"
    },
    {
      "inputs": [
        {
          "internalType": "address",
          "name": "",
          "type": "address"
        },
        {
          "internalType": "address",
          "name": "_to",
          "type": "address"
        },
        {
          "internalType": "uint256",
          "name": "",
          "type": "uint256"
        },
        {
          "internalType": "address",
          "name": "_compliance",
          "type": "address"
        }
      ],
      "name": "moduleCheck",
      "outputs": [
        {
          "internalType": "bool",
          "name": "",
          "type": "bool"
        }
      ],
      "stateMutability": "view",
      "type": "function"
    },
    {
      "inputs": [
        {
          "internalType": "address",
          "name": "_to",
          "type": "address"
        },
        {
          "internalType": "uint256",
          "name": "_value",
          "type": "uint256"
        }
      ],
      "name": "moduleMintAction",
      "outputs": [],
      "stateMutability": "nonpayable",
      "type": "function"
    },
    {
      "inputs": [
        {
          "internalType": "address",
          "name": "_from",
          "type": "address"
        },
        {
          "internalType": "address",
          "name": "_to",
          "type": "address"
        },
        {
          "internalType": "uint256",
          "name": "_value",
          "type": "uint256"
        }
      ],
      "name": "moduleTransferAction",
      "outputs": [],
      "stateMutability": "nonpayable",
      "type": "function"
    },
    {
      "inputs": [],
      "name": "name",
      "outputs": [
        {
          "internalType": "string",
          "name": "_name",
          "type": "string"
        }
      ],
      "stateMutability": "pure",
      "type": "function"
    },
    {
      "inputs": [
        {
          "internalType": "address",
          "name": "_compliance",
          "type": "address"
        }
      ],
      "name": "unbindCompliance",
      "outputs": [],
      "stateMutability": "nonpayable",
      "type": "function"
    }
  ],
  "bytecode": "0x608060405234801561001057600080fd5b506107fc806100206000396000f3fe608060405234801561001057600080fd5b50600436106100a95760003560e01c80634a932544116100715780634a932544146101405780634cf4d2951461015357806399f644f61461017f578063bcc2105314610198578063e6f5e807146101ac578063f104a8c91461012d57600080fd5b8063013b7ce4146100ae5780630694a5fb146100d657806306fdde03146100eb5780632cb7e1ec1461011a578063372491a21461012d575b600080fd5b6100c16100bc3660046105bb565b6101b3565b60405190151581526020015b60405180910390f35b6100e96100e436600461060e565b6101d2565b005b604080518082018252600d81526c4f6e6c795573614d6f64756c6560981b602082015290516100cd919061062b565b6100e961012836600461067a565b6102d1565b6100e961013b3660046106bb565b610305565b6100e961014e36600461060e565b610338565b6100c161016136600461060e565b6001600160a01b031660009081526020819052604090205460ff1690565b6100c161018d3660046106f7565b61ffff166103481490565b6100c16101a636600461060e565b50600190565b60016100c1565b6000806101c0838661046b565b61ffff16610348149695505050505050565b3360009081526020819052604090205460ff1661020a5760405162461bcd60e51b815260040161020190610714565b60405180910390fd5b6001600160a01b0381166102605760405162461bcd60e51b815260206004820152601f60248201527f696e76616c696420617267756d656e74202d207a65726f2061646472657373006044820152606401610201565b336001600160a01b038216146102885760405162461bcd60e51b81526004016102019061074b565b6001600160a01b038116600081815260208190526040808220805460ff19169055517f408b49d9be1c914c52a0227e18a077e5a892dddf32a26cfa94a5d9708fad77189190a250565b3360009081526020819052604090205460ff166103005760405162461bcd60e51b815260040161020190610714565b505050565b3360009081526020819052604090205460ff166103345760405162461bcd60e51b815260040161020190610714565b5050565b6001600160a01b03811661038e5760405162461bcd60e51b815260206004820152601f60248201527f696e76616c696420617267756d656e74202d207a65726f2061646472657373006044820152606401610201565b6001600160a01b03811660009081526020819052604090205460ff16156103f75760405162461bcd60e51b815260206004820152601860248201527f636f6d706c69616e636520616c726561647920626f756e6400000000000000006044820152606401610201565b336001600160a01b0382161461041f5760405162461bcd60e51b81526004016102019061074b565b6001600160a01b038116600081815260208190526040808220805460ff19166001179055517f1f7b76c58fb697eb53c6c7c1becb96911516a136e24d7ced386b2355358b75a39190a250565b6000826001600160a01b0316636a3edf286040518163ffffffff1660e01b8152600401602060405180830381865afa1580156104ab573d6000803e3d6000fd5b505050506040513d601f19601f820116820180604052508101906104cf919061078c565b6001600160a01b031663134e18f46040518163ffffffff1660e01b8152600401602060405180830381865afa15801561050c573d6000803e3d6000fd5b505050506040513d601f19601f82011682018060405250810190610530919061078c565b604051637e42683b60e01b81526001600160a01b0384811660048301529190911690637e42683b90602401602060405180830381865afa158015610578573d6000803e3d6000fd5b505050506040513d601f19601f8201168201806040525081019061059c91906107a9565b9392505050565b6001600160a01b03811681146105b857600080fd5b50565b600080600080608085870312156105d157600080fd5b84356105dc816105a3565b935060208501356105ec816105a3565b9250604085013591506060850135610603816105a3565b939692955090935050565b60006020828403121561062057600080fd5b813561059c816105a3565b60006020808352835180602085015260005b818110156106595785810183015185820160400152820161063d565b506000604082860101526040601f19601f8301168501019250505092915050565b60008060006060848603121561068f57600080fd5b833561069a816105a3565b925060208401356106aa816105a3565b929592945050506040919091013590565b600080604083850312156106ce57600080fd5b82356106d9816105a3565b946020939093013593505050565b61ffff811681146105b857600080fd5b60006020828403121561070957600080fd5b813561059c816106e7565b6020808252601e908201527f6f6e6c7920626f756e6420636f6d706c69616e63652063616e2063616c6c0000604082015260600190565b60208082526021908201527f6f6e6c7920636f6d706c69616e636520636f6e74726163742063616e2063616c6040820152601b60fa1b606082015260800190565b60006020828403121561079e57600080fd5b815161059c816105a3565b6000602082840312156107bb57600080fd5b815161059c816106e756fea264697066735822122052feb77985c00fc8b96e660eb029987773ef4271be0172ece6a287a6fd020f6664736f6c63430008180033",
  "linkReferences": {},
  "deployedLinkReferences": {}
}