{
  "_format": "hh-sol-artifact-1",
  "contractName": "TransferLimitOneHundredModule",
  "sourceName": "contracts/erc3643/compliance/modular/modules/TransferLimitOneHundredModule.sol",
  "abi": [
    {
      "anonymous": false,
      "inputs": [
        {
          "indexed": true,
          "internalType": "address",
          "name": "_compliance",
          "type": "address"
        }
      ],
      "name": "ComplianceBound",
      "type": "event"
    },
    {
      "anonymous": false,
      "inputs": [
        {
          "indexed": true,
          "internalType": "address",
          "name": "_compliance",
          "type": "address"
        }
      ],
      "name": "ComplianceUnbound",
      "type": "event"
    },
    {
      "inputs": [
        {
          "internalType": "address",
          "name": "_compliance",
          "type": "address"
        }
      ],
      "name": "bindCompliance",
      "outputs": [],
      "stateMutability": "nonpayable",
      "type": "function"
    },
    {
      "inputs": [
        {
          "internalType": "address",
          "name": "",
          "type": "address"
        }
      ],
      "name": "canComplianceBind",
      "outputs": [
        {
          "internalType": "bool",
          "name": "",
          "type": "bool"
        }
      ],
      "stateMutability": "view",
      "type": "function"
    },
    {
      "inputs": [
        {
          "internalType": "address",
          "name": "_compliance",
          "type": "address"
        }
      ],
      "name": "isComplianceBound",
      "outputs": [
        {
          "internalType": "bool",
          "name": "",
          "type": "bool"
        }
      ],
      "stateMutability": "view",
      "type": "function"
    },
    {
      "inputs": [],
      "name": "isPlugAndPlay",
      "outputs": [
        {
          "internalType": "bool",
          "name": "",
          "type": "bool"
        }
      ],
      "stateMutability": "pure",
      "type": "function"
    },
    {
      "inputs": [
        {
          "internalType": "address",
          "name": "_from",
          "type": "address"
        },
        {
          "internalType": "uint256",
          "name": "_value",
          "type": "uint256"
        }
      ],
      "name": "moduleBurnAction",
      "outputs": [],
      "stateMutability": "nonpayable",
      "type": "function"
    },
    {
      "inputs": [
        {
          "internalType": "address",
          "name": "",
          "type": "address"
        },
        {
          "internalType": "address",
          "name": "_to",
          "type": "address"
        },
        {
          "internalType": "uint256",
          "name": "",
          "type": "uint256"
        },
        {
          "internalType": "address",
          "name": "_compliance",
          "type": "address"
        }
      ],
      "name": "moduleCheck",
      "outputs": [
        {
          "internalType": "bool",
          "name": "",
          "type": "bool"
        }
      ],
      "stateMutability": "view",
      "type": "function"
    },
    {
      "inputs": [
        {
          "internalType": "address",
          "name": "_to",
          "type": "address"
        },
        {
          "internalType": "uint256",
          "name": "_value",
          "type": "uint256"
        }
      ],
      "name": "moduleMintAction",
      "outputs": [],
      "stateMutability": "nonpayable",
      "type": "function"
    },
    {
      "inputs": [
        {
          "internalType": "address",
          "name": "_from",
          "type": "address"
        },
        {
          "internalType": "address",
          "name": "_to",
          "type": "address"
        },
        {
          "internalType": "uint256",
          "name": "_value",
          "type": "uint256"
        }
      ],
      "name": "moduleTransferAction",
      "outputs": [],
      "stateMutability": "nonpayable",
      "type": "function"
    },
    {
      "inputs": [],
      "name": "name",
      "outputs": [
        {
          "internalType": "string",
          "name": "_name",
          "type": "string"
        }
      ],
      "stateMutability": "pure",
      "type": "function"
    },
    {
      "inputs": [
        {
          "internalType": "address",
          "name": "_compliance",
          "type": "address"
        }
      ],
      "name": "unbindCompliance",
      "outputs": [],
      "stateMutability": "nonpayable",
      "type": "function"
    }
  ],
  "bytecode": "0x608060405234801561001057600080fd5b506108e0806100206000396000f3fe608060405234801561001057600080fd5b506004361061009e5760003560e01c80634a932544116100665780634a9325441461014a5780634cf4d2951461015d578063bcc2105314610189578063e6f5e8071461019d578063f104a8c91461013757600080fd5b8063013b7ce4146100a35780630694a5fb146100d057806306fdde03146100e55780632cb7e1ec14610124578063372491a214610137575b600080fd5b6100bb6100b136600461059d565b6001949350505050565b60405190151581526020015b60405180910390f35b6100e36100de3660046105f0565b6101a4565b005b604080518082018252601d81527f5472616e736665724c696d69744f6e6548756e647265644d6f64756c65000000602082015290516100c79190610614565b6100e3610132366004610663565b6102a3565b6100e36101453660046106a4565b61041f565b6100e36101583660046105f0565b610452565b6100bb61016b3660046105f0565b6001600160a01b031660009081526020819052604090205460ff1690565b6100bb6101973660046105f0565b50600190565b60016100bb565b3360009081526020819052604090205460ff166101dc5760405162461bcd60e51b81526004016101d3906106d0565b60405180910390fd5b6001600160a01b0381166102325760405162461bcd60e51b815260206004820152601f60248201527f696e76616c696420617267756d656e74202d207a65726f20616464726573730060448201526064016101d3565b336001600160a01b0382161461025a5760405162461bcd60e51b81526004016101d390610707565b6001600160a01b038116600081815260208190526040808220805460ff19169055517f408b49d9be1c914c52a0227e18a077e5a892dddf32a26cfa94a5d9708fad77189190a250565b3360009081526020819052604090205460ff166102d25760405162461bcd60e51b81526004016101d3906106d0565b6000336001600160a01b0316636a3edf286040518163ffffffff1660e01b8152600401602060405180830381865afa158015610312573d6000803e3d6000fd5b505050506040513d601f19601f820116820180604052508101906103369190610748565b90506000816001600160a01b031663313ce5676040518163ffffffff1660e01b8152600401602060405180830381865afa158015610378573d6000803e3d6000fd5b505050506040513d601f19601f8201168201806040525081019061039c9190610765565b6103a790600a610884565b6103b2906064610893565b9050808311156104185760405162461bcd60e51b815260206004820152602b60248201527f5472616e7366657220616d6f756e74206d757374206265206f6e652068756e6460448201526a726564206f72206c65737360a81b60648201526084016101d3565b5050505050565b3360009081526020819052604090205460ff1661044e5760405162461bcd60e51b81526004016101d3906106d0565b5050565b6001600160a01b0381166104a85760405162461bcd60e51b815260206004820152601f60248201527f696e76616c696420617267756d656e74202d207a65726f20616464726573730060448201526064016101d3565b6001600160a01b03811660009081526020819052604090205460ff16156105115760405162461bcd60e51b815260206004820152601860248201527f636f6d706c69616e636520616c726561647920626f756e64000000000000000060448201526064016101d3565b336001600160a01b038216146105395760405162461bcd60e51b81526004016101d390610707565b6001600160a01b038116600081815260208190526040808220805460ff19166001179055517f1f7b76c58fb697eb53c6c7c1becb96911516a136e24d7ced386b2355358b75a39190a250565b6001600160a01b038116811461059a57600080fd5b50565b600080600080608085870312156105b357600080fd5b84356105be81610585565b935060208501356105ce81610585565b92506040850135915060608501356105e581610585565b939692955090935050565b60006020828403121561060257600080fd5b813561060d81610585565b9392505050565b60006020808352835180602085015260005b8181101561064257858101830151858201604001528201610626565b506000604082860101526040601f19601f8301168501019250505092915050565b60008060006060848603121561067857600080fd5b833561068381610585565b9250602084013561069381610585565b929592945050506040919091013590565b600080604083850312156106b757600080fd5b82356106c281610585565b946020939093013593505050565b6020808252601e908201527f6f6e6c7920626f756e6420636f6d706c69616e63652063616e2063616c6c0000604082015260600190565b60208082526021908201527f6f6e6c7920636f6d706c69616e636520636f6e74726163742063616e2063616c6040820152601b60fa1b606082015260800190565b60006020828403121561075a57600080fd5b815161060d81610585565b60006020828403121561077757600080fd5b815160ff8116811461060d57600080fd5b634e487b7160e01b600052601160045260246000fd5b600181815b808511156107d95781600019048211156107bf576107bf610788565b808516156107cc57918102915b93841c93908002906107a3565b509250929050565b6000826107f05750600161087e565b816107fd5750600061087e565b8160018114610813576002811461081d57610839565b600191505061087e565b60ff84111561082e5761082e610788565b50506001821b61087e565b5060208310610133831016604e8410600b841016171561085c575081810a61087e565b610866838361079e565b806000190482111561087a5761087a610788565b0290505b92915050565b600061060d60ff8416836107e1565b808202811582820484141761087e5761087e61078856fea26469706673582212205cbfa6ccc2d51e1d39f0114a0e0efea4daf2746fe18d351c8b017241d4b3faa864736f6c63430008180033",
  "linkReferences": {},
  "deployedLinkReferences": {}
}